:020000040800F2
:10000000005000205D1C00083D0500083F05000869
:1000100041050008430500084505000800000000F0
:10002000000000000000000000000000470500087C
:1000300049050008000000004B0500084D050008B8
:10004000A51C0008A51C0008A51C0008A51C00088C
:10005000A51C0008A51C0008A51C0008A51C00087C
:10006000A51C0008A51C0008A51C0008A51C00086C
:100070005D0500086905000875050008A51C000855
:1000800081050008A51C0008A51C0008A51C000887
:10009000A51C0008A51C0008A51C0008A51C00083C
:1000A000A51C0008A51C0008A51C0008A51C00082C
:1000B000A51C0008A51C0008A51C0008A51C00081C
:1000C000A51C0008A51C0008A51C0008A51C00080C
:1000D000A51C0008A51C0008A51C00088D0500082B
:1000E00099050008A51C0008A51C000800000000D8
:1000F0000000000000000000000000000000000000
:0C01000000000000000000005FF808F1A3
:10010C0010B5054C237833B9044B13B10448AFF345
:10011C0000800123237010BD0C00002000000000A3
:10012C00001D000808B5034B1BB103490348AFF38E
:10013C00008008BD0000000010000020001D000819
:10014C00002270B58C5CD3B2412C18D10025013340
:10015C000470DBB2092BECB20AD9022C55D0032C5B
:10016C005DD0012C4ED111444B78303B437049E0AB
:10017C00CE5C0135422EF0D00133DBB2EAE7432CE2
:10018C000DD1002501330470DBB2092BECB2E4D89D
:10019C00CE5C0135422EE0D00133DBB2F5E7442CC6
:1001AC000DD1002501330470DBB2092BECB2D4D88D
:1001BC00CE5C0135422ED0D00133DBB2F5E7452CB5
:1001CC000DD1002501330470DBB2092BECB2C4D87D
:1001DC00CE5C0135422EC0D00133DBB2F5E7462CA4
:1001EC000DD1002501330470DBB2092BECB2B4D86D
:1001FC00CE5C0135422EB0D00133DBB2F5E70132D3
:10020C000A2A9FD14223837070BD11444B788A789F
:10021C00303B03EB8303303A02EB4303A6E7114474
:10022C004B78CA78303B03EB8303303A03EB830300
:10023C0002EB83038A78303A02EB820203EB42032F
:10024C0094E70000164B07B55A690C2042F00102E6
:10025C005A6100225B69114603F001030193019B73
:10026C0000F0FEFB0C2000F02FFC00220D201146AC
:10027C0000F0F6FB0D2000F027FC00220E201146AA
:10028C0000F0EEFB0E2000F01FFC002210201146A7
:10029C0000F0E6FB102000F017FC03B05DF804FB47
:1002AC00001002401022F0B589B00DEB02000021C5
:1002BC0001F018FD354B364E9A69304642F010026B
:1002CC009A619A69202102F010020092009A9A69B0
:1002DC00002542F020029A619A692E4F02F020020A
:1002EC000192019A9A69032442F004029A619A6974
:1002FC0002F004020292029A9A6942F008029A6190
:10030C009B69002203F008030393039B00F0EEFDAE
:10031C004FF400530493204B04A9384605930695DB
:10032C0000F002FD41F6FF7304A9384604930594CE
:10033C0000F0FAFC49F2D30304A930460493059467
:10034C0000F0F2FC2023049301230593022304A95B
:10035C0030460793069500F0E7FC4FF2F73304A9FB
:10036C000E480493059400F0DFFC042304A90C4808
:10037C000493059400F0D8FC2A462946282000F066
:10038C006FFB282000F0A0FB09B0F0BD001002406C
:10039C00000801400010014000001110000C014049
:1003AC000014014010B590B02822002106A801F0DD
:1003BC0099FC1422002101A801F094FC01230A935A
:1003CC00102302240B934FF4601306A80F9306948A
:1003DC000D9400F0A3FD0F234FF4806201930023D2
:1003EC00214601A8029403930492059300F070FF38
:1003FC0010B010BD08B500F0FDFAFFF7D3FFFFF702
:10040C0051FFFFF71FFF00F0A3F900F023FA00F0F3
:10041C003DFA00210D4801F035FA04210B4801F09A
:10042C0031FA0821094801F02DFA0C21074801F096
:10043C0029FA0A220649074801F0FAFA044D064C3B
:10044C0029462046FFF77CFEFAE700BF4801002052
:10045C0028000020880100203200002008B5054942
:10046C000A22054801F0E4FABDE8084020210348BF
:10047C0000F041BD28000020880100200008014048
:10048C000C4B1A78413A052A12D8DFE802F0031116
:10049C0011080B0E00215A78074800F010B85A7852
:1004AC000421F9E75A780821F6E75A780C21F3E78A
:1004BC00704700BF32000020480100207047B42A6A
:1004CC0028BFB42202EB420302EB830202F5C8728E
:1004DC0092B2036809B95A637047042901D19A632F
:1004EC00704708290CBFDA631A6470470E4B82B050
:1004FC009A6942F001029A619A6902F00102009233
:10050C00009ADA6942F08052DA61DB69074A03F03B
:10051C0080530193019B536823F0E06343F0007315
:10052C00536002B0704700BF001002400000014051
:10053C007047FEE7FEE7FEE7FEE77047704770473F
:10054C0008B5FFF79DFFBDE8084000F065BA000054
:10055C00014800F055BB00BF38000020014800F0F6
:10056C004FBB00BF04010020014800F049BB00BF95
:10057C007C000020014800F043BB00BFC0000020FD
:10058C00014801F0BDBA00BF880100204FF40050B3
:10059C0000F0B8BC0F4B1A6842F001021A6059689F
:1005AC000D4A0A405A601A6822F0847222F4803292
:1005BC001A601A6822F480221A605A6822F4FE0229
:1005CC005A604FF41F029A604FF00062034B9A601E
:1005DC00704700BF001002400000FFF800ED00E083
:1005EC0037B53E4B026805469A4274D103F5644315
:1005FC009A693B4C42F400629A619B69394A03F454
:10060C0000630193019B102384E80C008022E260BC
:10061C004FF4807222614FF48062002362612022C9
:10062C002046A360A261E36100F072FA08B1FFF703
:10063C0045FF10236C622C4A65622C4C84E80C003C
:10064C008022E2604FF4807222614FF480620023BA
:10065C00626120222046A360A261E36100F058FA97
:10066C0008B1FFF72BFF1023214AAC626562214CC5
:10067C0084E80C008022E2604FF4807222614FF417
:10068C0080620023626120222046A360A261E361A4
:10069C0000F03EFA08B1FFF711FF1023164AEC6286
:1006AC006562164C84E80C008022E2604FF4807284
:1006BC0022614FF480620023626120222046A360F5
:1006CC00A261E36100F024FA08B1FFF7F7FE2C6396
:1006DC006562AC636C6303B030BD00BF002C01409D
:1006EC00380000201C0002403000024004010020B1
:1006FC006C000240C0000020440002407C0000203E
:10070C0010B5044686B01022002102A801F0EAFAC6
:10071C0022680D4B9A4214D103F564439A6902A9DD
:10072C0042F004029A619B69084803F004030193A8
:10073C00019B4FF47063029302230393059300F023
:10074C00F3FA06B010BD00BF002C014000080140B8
:10075C0010B596B01022002103A8002401F0C2FAB3
:10076C001C2221460DEB02000194029401F0BAFA0E
:10077C00202221460EA801F0B5FA3F233348344A13
:10078C00846080E80C0044F61F630461C36044611C
:10079C00846100F009FF08B1FFF790FE4FF480531D
:1007AC0003A92A48039300F0CBFF08B1FFF786FE9C
:1007BC00264800F013FF08B1FFF780FE002401A9C2
:1007CC0022480194029401F079F808B1FFF776FE03
:1007DC006023002207A91D480793089409940A94E2
:1007EC000B940C940D9400F03FFF08B1FFF766FEDC
:1007FC00042207A9154800F037FF08B1FFF75EFE89
:10080C00082207A9114800F02FFF08B1FFF756FE88
:10081C000C2207A90D4800F027FF08B1FFF74EFE88
:10082C0000234FF400520EA908480E930F93109317
:10083C00119312931392159301F05EF808B1FFF720
:10084C003DFE0248FFF75CFF16B010BD48010020CA
:10085C00002C014008B54FF4E13E0A480A4B0C222B
:10086C0080E80840002342618360C36003618361B8
:10087C00C36101F0AFF818B1BDE80840FFF71EBE28
:10088C0008BD00BFC80100200044004008B54FF46B
:10089C00165E0A480A4B0C2280E80840002342618D
:1008AC008360C36003618361C36101F093F818B185
:1008BC00BDE80840FFF702BE08BD00BF880100205C
:1008CC0000480040102210B5044688B00DEB020021
:1008DC00002101F007FA23682F4A934227D12F4BAE
:1008EC0004A9DA692E4842F40032DA61DA6902F4BA
:1008FC0000320092009A9A6942F004029A619B6954
:10090C0003F004030193019B042304930223059336
:10091C000323079300F008FA08230493002304A987
:10092C001F480593069300F0FFF908B010BD1D4A4F
:10093C009342FAD1194B04A9DA691B4842F480227C
:10094C00DA61DA69002402F480220292029A9A692E
:10095C0042F008029A619B6903F008030393039B1E
:10096C004FF480630493022305930323079300F051
:10097C00DBF94FF4006304A90B4804930594069427
:10098C0000F0D2F922462146272000F069F82720F2
:10099C0000F09AF8C9E700BF004400400010024084
:1009AC000008014000480040000C014038B50E4BD7
:1009BC00054618784FF47A73B3FBF0F30B4A1068C2
:1009CC00B0FBF3F000F08EF8044658B90F2D09D89F
:1009DC00024629464FF0FF3000F042F8044B204607
:1009EC001D6038BD012038BD04000020000000202F
:1009FC0008000020074A08B51368032043F01003D1
:100A0C00136000F01BF80020FFF7D0FFFFF76EFD1E
:100A1C00002008BD00200240034A044B11681B78DB
:100A2C000B441360704700BF080200200400002034
:100A3C00014B1868704700BF08020020074A0002EB
:100A4C00D36800F4E06023F4E0631B041B0C43F058
:100A5C00BF6343F400330343D360704700ED00E001
:100A6C00174B30B5DC68C4F30224C4F10703251D11
:100A7C00042B28BF0423062D4FF0010598BF00243A
:100A8C0005FA03F303F1FF3388BF033C1940A1407F
:100A9C0005FA04F4013C2240002842EA01024FEA24
:100AAC000212A9BF00F16040064BD2B200F56140C2
:100ABC00BBBF00F00F00D2B280F800231A5430BD37
:100ACC0000ED00E014ED00E0002808DB01234209F2
:100ADC0000F01F0003FA00F0014B43F822007047AE
:100AEC0000E100E00138B0F1807F0AD2F021064B22
:100AFC00064A586082F823100020072298601A607A
:100B0C0070470120704700BF10E000E000ED00E0EE
:100B1C0010B530B314220168134B84680B44B3FB3B
:100B2C00F2F39B000364114B0A68C363436822F41D
:100B3C007F522343C46822F03002234304692343C9
:100B4C004469234384692343C469234313430B60DF
:100B5C000122002380F82120836380F8203018467E
:100B6C0010BD012010BD00BFF8FFFDBF000002400A
:100B7C0090F8213010B5022B03D00423836301209D
:100B8C0010BD03681A6822F00E021A601A6822F06F
:100B9C0001021A60184A93421FD0143293421ED09D
:100BAC00143293421DD0143293421DD0143293420E
:100BBC001DD0143293420CBF4FF480134FF080734E
:100BCC000E4A00245360012380F82130436B80F8D7
:100BDC0020407BB19847204610BD0123F0E710233D
:100BEC00EEE74FF48073EBE74FF48053E8E74FF4F4
:100BFC008033E5E7184610BD0800024000000240B3
:100C0C0070B40425C66B026C3468036895402542A9
:100C1C00196832D04D0730D51A6896065EBF1A682F
:100C2C0022F004021A603E4A934219D014329342C5
:100C3C0018D01432934217D01432934217D0143276
:100C4C00934217D0143293420CBF4FF480034FF0F1
:100C5C008063344A5360C36A002B5ED070BC184763
:100C6C000423F6E74023F4E74FF48063F1E74FF4F5
:100C7C008043EEE74FF48023EBE7022595402542B5
:100C8C0035D08D0733D51A68940606D41A6822F02D
:100C9C000A021A60012280F82120214A934219D0BD
:100CAC001432934218D01432934217D01432934218
:100CBC0017D01432934217D0143293420CBF4FF416
:100CCC0000134FF00073174A5360002380F8203054
:100CDC00836AC1E70223F6E72023F4E74FF400739D
:100CEC00F1E74FF40053EEE74FF40033EBE7082540
:100CFC009540254211D009070FD5196821F00E0136
:100D0C001960012303FA02F27260836380F82130C8
:100D1C00002380F82030036B9EE770BC704700BF47
:100D2C0008000240000002402DE9F74F002426463F
:100D3C00664BDFF8A8E1DFF8A8C10A6832FA06F5BD
:100D4C0002D103B0BDE8F08F4FF0010808FA06F8A5
:100D5C0002EA080290457FD14D68122D00F0AA805E
:100D6C0000F28380022D00F0A28077D8002D00F0D5
:100D7C008980012D00F099804FF00F09FF2A93BF55
:100D8C00824606F18045083DD0F800B092BFB50010
:100D9C00D0F804B0AD0009FA05F82BEA080804FAFB
:100DAC0005F588BF00F1040A48EA0505CAF80050A9
:100DBC00D1F804A01AF0805F4ED0454D444FAD6978
:100DCC0026F0030845F00105BD61BD6908F18048B6
:100DDC0005F00105019508F5803806F0030B019D1F
:100DEC004FEA8B0BD8F8085009FA0BF925EA0909D8
:100DFC00384DA84263D005F58065A84261D005F551
:100E0C008065A8425FD005F58065A8420CBF03251C
:100E1C00042505FA0BF545EA0905C8F808501D68C4
:100E2C001AF4803F14BF154395431D605D681AF496
:100E3C00003F14BF154395435D609D681AF4801FF5
:100E4C0014BF154395439D60DD681AF4001F14BF51
:100E5C002A4325EA0202DA6001366EE7032D22D01E
:100E6C00112D89D1CC68043486E71B4FBD4209D0C3
:100E7C0012D8DFF870904D4504D009F580394D45F6
:100E8C007FF47AAF8C68C4B1012C0CBFC0F8108011
:100E9C00C0F8148008246FE77545F3D06545F1D090
:100EAC00DFF84490EBE7002466E7CC6864E7CC6895
:100EBC00083461E7CC680C345EE704245CE7002559
:100ECC00A7E70125A5E70225A3E700BF0004014021
:100EDC0000100240000801400000211000003110F9
:100EEC000000321000001110000022100AB1016144
:100EFC0070470904FBE7C3680B4214BF41610161F1
:100F0C007047704708B5044B5969014202D05861CB
:100F1C00FFF7F7FF08BD00BF000401402DE9F341C6
:100F2C00054608B901203CE00368DB0710D42B68A8
:100F3C009F075DD42B68190700F194802B685A0722
:100F4C0000F1BE80E869002840F02C81002028E0E8
:100F5C008F4C636803F00C03042B07D0636803F019
:100F6C000C03082B09D16368DE0306D523689C03A8
:100F7C00DDD56B68002BDAD1D4E76B68B3F5803F15
:100F8C0012D1236843F480332360FFF751FD0646EA
:100F9C0023689803CBD4FFF74BFD801B6428F7D94B
:100FAC00032002B0BDE8F0819BB9236823F48033A1
:100FBC002360236823F480232360FFF739FD064662
:100FCC0023689903B3D5FFF733FD801B6428F7D949
:100FDC00E6E7B3F5A02F236803D143F48023236005
:100FEC00CFE723F480332360236823F48023CBE7FB
:100FFC00674C636813F00C0F07D0636803F00C03A5
:10100C00082B10D16368DA030DD423689B0702D533
:10101C002B69012B86D123686A6923F0F80343EA14
:10102C00C203236086E72A695A4B6AB101221A600F
:10103C00FFF7FEFC064623689F07ECD4FFF7F8FC8D
:10104C00801B0228F7D9ABE71A60FFF7F1FC0646C4
:10105C00236898077FF56EAFFFF7EAFC801B022828
:10106C00F6D99DE7AA694A4C4B4BDAB101221A60BA
:10107C00FFF7DEFC0646636A9B070DD54FF4FA5268
:10108C00464B1B68B3FBF2F3019300BF019B5A1E46
:10109C000192002BF9D151E7FFF7CAFC801B022803
:1010AC00E9D97DE71A60FFF7C3FC0646636A9F0720
:1010BC007FF544AFFFF7BCFC801B0228F6D96FE725
:1010CC00334CE369D80024D40127E36943F08053FF
:1010DC00E361E36903F080530093009B304E336867
:1010EC00D90518D5EB68012B26D1236A43F00103EF
:1010FC002362FFF79DFC41F288368046236A9B07EA
:10110C003FD5002F3FF41EAFE36923F08053E3611A
:10111C0018E70027E2E7336843F480733360FFF786
:10112C0087FC80463368DA05DCD4FFF781FCA0EB42
:10113C0008006428F6D933E7ABB9236A41F2883842
:10114C0023F001032362236A23F004032362FFF7D5
:10115C006FFC0646236A9807D3D5FFF769FC801B02
:10116C004045F7D91CE7052B236A03D143F0040350
:10117C002362BAE723F001032362236A23F00403FA
:10118C00B6E7FFF755FCA0EB0800B042B6D907E76D
:10119C000010024000004242800442420000002045
:1011AC00007000402A4B5A681C4602F00C02082AB8
:1011BC003DD00023274E022833602BD1FFF738FC9B
:1011CC000746236899011FD42B6AB3F5803F05D1DC
:1011DC006268A96822F400320A436260696A626834
:1011EC000B4322F474121343636001233360FFF743
:1011FC001FFC054623689A013FF5A8AEFFF718FCC3
:10120C00401B0228F6D9CBE6FFF712FCC01B0228C4
:10121C00D7D9C5E6FFF70CFC054623689B017FF583
:10122C0095AEFFF705FC401B0228F6D9B8E601285D
:10123C003FF4B7AE58682B6A00F480329A427FF4C0
:10124C0071AE6B6A00F47010C01A18BF0120A8E6CA
:10125C00001002406000424230B5194B87B002AC1E
:10126C0003F11005224618685968083303C2AB42D3
:10127C001446F7D101238DF80430022311498DF85F
:10128C0005304B6803F00C02082A17D1C3F38342D4
:10129C0006A80244DB0312F8102C0CD54B680A4844
:1012AC00C3F34043504306AA134413F8143CB0FB59
:1012BC00F3F007B030BD05485043FAE70248F8E7B1
:1012CC00181D00080010024000127A0000093D00B1
:1012DC002DE9F0410D46044610B90120BDE8F0811E
:1012EC00454A136803F007038B4229D321688E0704
:1012FC0031D4CA0744D4404A136803F007039D4213
:10130C0067D322683D4D12F0040F6ED1130706D53A
:10131C006B68226923F4605343EAC2036B60FFF7E6
:10132C009BFF6B68364AC3F30313D35CD840354B31
:10133C001860354B1868FFF739FB0020BDE8F081C9
:10134C00136823F007030B431360136803F00703C0
:10135C009942C2D1CAE7294B11F0040F1EBF5A683B
:10136C0042F4E0625A60080742BF5A6842F4605285
:10137C005A605A68A06822F0F00202435A60B8E73B
:10138C0062681E4E012A33681BD113F4003FA4D0AF
:10139C00736841F2883823F0030313437360FFF73B
:1013AC0047FB07467368626803F00C03B3EB820FCC
:1013BC00A1D0FFF73DFBC01B4045F3D90320BDE88E
:1013CC00F081022A02D113F0007FE0E713F0020F44
:1013DC00DDE7136823F007032B431360136803F056
:1013EC0007039D427FF479AF8BE76B68E16823F4C8
:1013FC00E0630B436B6089E7002002400010024061
:10140C00281D00080000002008000020044B054A9D
:10141C005B68C3F30223D35C034A1068D84070475F
:10142C0000100240381D000800000020044B054A43
:10143C005B68C3F3C223D35C034A1068D84070477F
:10144C0000100240381D000800000020036A70B52F
:10145C0023F001030362036A446882690D6822F079
:10146C0073022A438D6823F002032B430A4DA842D2
:10147C000BD1CD6823F008032B438E694D6924F4FE
:10148C004074354323F004032C43446082614A6862
:10149C004263036270BD00BF002C0140036A70B54B
:1014AC0023F480730362036A4468C2690D6822F0F6
:1014BC0073022A438D6823F4007343EA05230B4D12
:1014CC00A8420DD1CD6823F4006343EA05238E694D
:1014DC004D6924F44054354323F4806344EA0514E5
:1014EC004460C2614A68C263036270BD002C014053
:1014FC00036A30B523F480530362036A4468C269FB
:10150C000D6822F4E64242EA05228D6823F400536A
:10151C0043EA0533064DA84202BF4D6924F48044CA
:10152C0044EA85144460C2614A680264036230BDB7
:10153C00002C0140704700001A4A036890420AD000
:10154C00B0F1804F07D0A2F59432904203D002F54F
:10155C008062904215D14A6823F070031343114AFC
:10156C0090420AD0B0F1804F07D0A2F5943290424D
:10157C0003D002F58062904203D1CA6823F4407311
:10158C0013434A6923F08003134303608B68C362DF
:10159C000B688362034B984204BF0B6903630123FE
:1015AC0043617047002C014010B50446A0B190F87F
:1015BC003D3003F0FF021BB980F83C20FFF710F818
:1015CC000223206884F83D30211DFFF7B5FF01236D
:1015DC00002084F83D3010BD012010BD10B504462C
:1015EC00A0B190F83D3003F0FF021BB980F83C200D
:1015FC00FFF7A0FF0223206884F83D30211DFFF780
:10160C009BFF0123002084F83D3010BD012010BD4C
:10161C00036A70B523F010030362036A446882699D
:10162C000D6822F4E64242EA05228D6823F020037D
:10163C0043EA05130B4DA8420DD1CD6823F080036E
:10164C0043EA05138E694D6924F44064354323F055
:10165C00400344EA8504446082614A688263036201
:10166C0070BD00BF002C014038B590F83C300446EA
:10167C00012B4FF0020025D0012384F83D0084F8A3
:10168C003C300C2A18D8DFE802F0071717171E1782
:10169C0017172F17171740002068FFF7D7FE23687E
:1016AC0009699A6942F008029A619A6922F0040267
:1016BC009A619A690A439A610123002084F83D30AB
:1016CC0084F83C0038BD2068FFF7A2FF2368096945
:1016DC009A6942F400629A619A6922F480629A6172
:1016EC009A6942EA0122E6E72068FFF7D7FE2368F1
:1016FC000969DA6942F00802DA61DA6922F0040257
:10170C00DA61DA690A43DA61D6E72068FFF7F0FE9E
:10171C0023680969DA6942F40062DA61DA6922F451
:10172C008062DA61DA6942EA0122ECE710B584687A
:10173C000A4324F47F4442EA03232343836010BD0D
:10174C0090F83C3070B5012B04464FF0020019D0D4
:10175C00012384F83D00206884F83C30836823F42E
:10176C007F4323F0770383600B68402B65D015D83B
:10177C00102B0CD007D853B10123002084F83D3036
:10178C0084F83C0070BD202B01D0302BF4D1826842
:10179C0043F0070322F0700213431AE0602B34D09D
:1017AC0019D8502BE8D14A68CE68016A056A21F035
:1017BC000A0125F00105056283690A4323F0F00351
:1017CC0043EA061383610262836823F0700343F0DB
:1017DC0057038360D0E7702B0CD0B3F5005FCBD1EF
:1017EC00CB684A688968FFF7A1FF2268936843F4C5
:1017FC00804308E0CB684A688968FFF797FF226846
:10180C00936843F077039360B6E74D68CE68016A3E
:10181C0021F0100101628269036A22F4704223F004
:10182C00A00343EA051342EA06328261036283682D
:10183C0023F0700343F06703CBE74A68CE68016A74
:10184C00056A21F00A0125F00105056283690A4346
:10185C0023F0F00343EA061383610262836823F0EA
:10186C00700343F04703B4E710B50124036A01F099
:10187C001F018C4023EA04030362036A8A401A4363
:10188C00026210BD10B5044601220068FFF7ECFFA0
:10189C002368094A0020934202BF5A6C42F400426A
:1018AC005A649A6802F00702062A1EBF1A6842F0B0
:1018BC0001021A6010BD00BF002C014090F83C30B2
:1018CC0030B5012B4FF0020314D0046880F83D3082
:1018DC006268A3680D68496822F0700223F08003E7
:1018EC000B432A436260A360012380F83D30002340
:1018FC0080F83C30184630BD90F83C30012B1FD09E
:10190C00CB688A6823F4407313434A6823F48063DA
:10191C0013430A6823F4006313430A6923F48053C6
:10192C0013434A6923F400531343CA6923F48043D5
:10193C00134302685364002380F83C301846704708
:10194C00022070470368DA6822F49072DA605A69F0
:10195C0022F001025A61202380F83A3070470000CF
:10196C0038B505460368C1681A69192422F4405237
:10197C000A431A6182680069D9680243686921F4D4
:10198C00B05121F00C0102430A43DA605A69A9698B
:10199C0022F440720A435A610D4A934214D1FFF764
:1019AC0045FD60436C686422A400B0FBF4F0B0FB0E
:1019BC00F2F402FB14031B013233B3FBF2F329687C
:1019CC0003EB04138B6038BDFFF720FDE9E700BF84
:1019DC000038014010B5044640B390F8393003F09C
:1019EC00FF021BB980F83820FEF76CFF2423226815
:1019FC0084F83930D368204623F40053D360FFF7C2
:101A0C00AFFF236800201A6922F490421A615A69C8
:101A1C0022F02A025A61DA6842F40052DA6020237A
:101A2C00E06384F8393084F83A3010BD012010BDE1
:101A3C0090F83A30202B20D1E9B1E2B190F838304F
:101A4C00012B1AD0C285828500232222C36380F821
:101A5C003A2002688162D16880F8383041F4807194
:101A6C00D1605169184641F001015161D16841F0D2
:101A7C002001D160704701207047022070477047E9
:101A8C0090F83A3010B5222B36D183680169B3F542
:101A9C00805F0268836A23D15268E9B9C2F30802F5
:101AAC0023F8022B8362C48D013CA4B2C4858CB98B
:101ABC000368DA6822F02002DA60DA6822F48072B5
:101ACC00DA605A6922F001025A61202380F83A3018
:101ADC00FEF7C4FC002010BDD2B223F8012BE1E7C5
:101AEC0021B9591C526881621A70DCE75268591C82
:101AFC00816202F07F02F7E7022010BD7047000000
:101B0C00036870B51A6804461607D9685D6907D171
:101B1C0096065AD58D0658D5BDE87040FFF7B0BF74
:101B2C0015F0010502D111F4907F4ED0D30705D5E5
:101B3C00CE0542BFE36B43F00103E363500704D5CA
:101B4C001DB1E36B43F00203E363930704D51DB1AE
:101B5C00E36B43F00403E363160704D51DB1E36B99
:101B6C0043F00803E363E36B002B66D0950604D5C2
:101B7C00880602D52046FFF783FF236820465D695F
:101B8C00E26B110702D415F040051AD0FFF7DAFE0C
:101B9C0023685A69520610D55A69606B22F04002CC
:101BAC005A6150B1254B4363FEF7E2FF002844D045
:101BBC00606BBDE87040436B18472046FFF79EFFF3
:101BCC0070BDFFF79BFFE56370BD160627D50D06AC
:101BDC0025D594F83920212A2FD1A268B2F5805F3F
:101BEC00226A17D11188C1F308015960216979B9AA
:101BFC0002322262E28C013A92B2E284EAB9DA68E9
:101C0C0022F08002DA60DA6842F04002DA6070BDDD
:101C1C000132EEE7511C216212785A60EAE7500655
:101C2C000BD54A0609D5DA68204622F04002DA6064
:101C3C00202384F83930FFF722FF70BD4D1C0008BB
:101C4C0008B50023406AC385C384FFF757FF08BD5E
:101C5C00002103E00B4B5B58435004310A480B4BFB
:101C6C0042189A42F6D30A4A02E0002342F8043B97
:101C7C00084B9A42F9D3FEF78DFC00F00FF8FEF7F3
:101C8C00B9FB7047481D0008000000200C00002024
:101C9C000C0000200C020020FEE7000070B50025AF
:101CAC000C4E0D4CA41BA410A54209D100F022F837
:101CBC0000250A4E0A4CA41BA410A54205D170BDE8
:101CCC0056F8253098470135EEE756F825309847F9
:101CDC000135F2E7401D0008401D0008401D0008BA
:101CEC00441D000803460244934200D1704703F898
:101CFC00011BF9E7F8B500BFF8BC08BC9E4670475D
:0C1D0C00F8B500BFF8BC08BC9E4670474C
:101D180002030405060708090A0B0C0D0E0F101024
:101D28000000000000000000010203040607080983
:081D3800000000000102030499
:041D40003101000865
:041D44000D01000885
:0C1D48000024F400010000001000000066
:0400000508001C5D76
:00000001FF
